{
  "_format": "hh-sol-artifact-1",
  "contractName": "Encrypt",
  "sourceName": "contracts/Encrypt.sol",
  "abi": [
    {
      "anonymous": false,
      "inputs": [
        {
          "indexed": true,
          "internalType": "uint256",
          "name": "id",
          "type": "uint256"
        }
      ],
      "name": "DataStored",
      "type": "event"
    },
    {
      "inputs": [
        {
          "internalType": "uint256",
          "name": "index",
          "type": "uint256"
        }
      ],
      "name": "getStoredData",
      "outputs": [
        {
          "internalType": "bytes",
          "name": "",
          "type": "bytes"
        }
      ],
      "stateMutability": "view",
      "type": "function"
    },
    {
      "inputs": [
        {
          "internalType": "bytes",
          "name": "data",
          "type": "bytes"
        }
      ],
      "name": "storeData",
      "outputs": [],
      "stateMutability": "nonpayable",
      "type": "function"
    }
  ],
  "bytecode": "0x608060405234801561001057600080fd5b5061046a806100206000396000f3fe608060405234801561001057600080fd5b50600436106100365760003560e01c80638a5623a21461003b578063ac5c853514610064575b600080fd5b61004e610049366004610289565b610079565b60405161005b91906102a2565b60405180910390f35b61007761007236600461030d565b610174565b005b60005460609082106100c75760405162461bcd60e51b8152602060048201526013602482015272496e646578206f7574206f6620626f756e647360681b604482015260640160405180910390fd5b600082815481106100da576100da6103be565b9060005260206000200180546100ef906103d4565b80601f016020809104026020016040519081016040528092919081815260200182805461011b906103d4565b80156101685780601f1061013d57610100808354040283529160200191610168565b820191906000526020600020905b81548152906001019060200180831161014b57829003601f168201915b50505050509050919050565b6000805460018101825590805281516101b4917f290decd9548b62a8d60345a988386fc84ba6bc95484008f6362f93160ef3e563019060208401906101f0565b506000546101c49060019061040f565b6040517f9455957c3b77d1d4ed071e2b469dd77e37fc5dfd3b4d44dc8a997cc97c7b3d4990600090a250565b8280546101fc906103d4565b90600052602060002090601f01602090048101928261021e5760008555610264565b82601f1061023757805160ff1916838001178555610264565b82800160010185558215610264579182015b82811115610264578251825591602001919060010190610249565b50610270929150610274565b5090565b5b808211156102705760008155600101610275565b60006020828403121561029b57600080fd5b5035919050565b600060208083528351808285015260005b818110156102cf578581018301518582016040015282016102b3565b818111156102e1576000604083870101525b50601f01601f1916929092016040019392505050565b634e487b7160e01b600052604160045260246000fd5b60006020828403121561031f57600080fd5b813567ffffffffffffffff8082111561033757600080fd5b818401915084601f83011261034b57600080fd5b81358181111561035d5761035d6102f7565b604051601f8201601f19908116603f01168101908382118183101715610385576103856102f7565b8160405282815287602084870101111561039e57600080fd5b826020860160208301376000928101602001929092525095945050505050565b634e487b7160e01b600052603260045260246000fd5b600181811c908216806103e857607f821691505b6020821081141561040957634e487b7160e01b600052602260045260246000fd5b50919050565b60008282101561042f57634e487b7160e01b600052601160045260246000fd5b50039056fea2646970667358221220baf3e1a1648f75426d1fdec3a9bac2c0a3b8bc0d8101d559a18025741c48324964736f6c63430008090033",
  "linkReferences": {},
  "deployedLinkReferences": {}
}